:020000040800F2
:1000000018080020050200086102000861020008CB
:10001000610200086102000861020008000000009F
:100020000000000000000000000000006102000865
:10003000610200080000000061020008610200087F
:100040006102000861020008610200086102000804
:1000500061020008610200087D04000861020008D6
:1000600061020008610200086102000861020008E4
:1000700061020008610200086102000861020008D4
:1000800061020008610200086102000861020008C4
:1000900061020008610200086102000861020008B4
:1000A00061020008610200086102000861020008A4
:1000B000990400086102000861020008610200085A
:1000C0006102000861020008610200086102000884
:1000D0006102000861020008610200086102000874
:1000E0006102000861020008610200086102000864
:1000F0006102000861020008610200086102000854
:100100006102000861020008610200086102000843
:100110006102000861020008610200086102000833
:100120006102000861020008610200086102000823
:100130006102000861020008610200086102000813
:100140006102000861020008610200086102000803
:1001500061020008610200086102000861020008F3
:1001600061020008610200086102000861020008E3
:1001700061020008610200086102000861020008D3
:10018000610200086102000890B484B000AF02462A
:100190000B46FA71BB710023FB60BB7903F00303CC
:1001A0009B000F2202FA03F3FB60154BBA79920809
:1001B000D2B21349B8798008C0B2023051F8200099
:1001C000F968C9430140023243F822100C4BBA7956
:1001D0009208D2B20A49B8798008C0B2023051F808
:1001E0002000FC79B97901F00301890004FA01F1DA
:1001F0000143023243F822101037BD4690BC7047CD
:100200000038014080B582B000AF104B7B60104BCE
:100210003B6007E03B681A1D3A607A68111D7960FF
:1002200012681A603A680B4B9A42F3D30A480B499A
:100230004FF000028842B8BF40F8042BFFF6FAAF37
:1002400000F012F80837BD4680BD00BFE409000881
:1002500000000020100000201000002014000020EA
:1002600080B400AFFEE700BF80B500AF00F03CF9FE
:10027000FEE700BF80B500AF002000F0E7F80120E6
:1002800000F0E4F8022000F0E1F8032000F0DEF8CE
:1002900080BD00BF80B483B000AF78600B46FB70B8
:1002A000FB78002B06D0094B084A116B7A680A4389
:1002B0001A6306E0054B054A116B7A68D2430A407F
:1002C0001A630C37BD465DF8047B70470038024066
:1002D00080B483B000AF78600B46FB70FB78002BD6
:1002E00006D0094B084A116C7A680A431A6406E082
:1002F000054B054A116C7A68D2430A401A640C37E0
:10030000BD465DF8047B70470038024080B487B07A
:1003100000AF7860396000237B6100233B610023DC
:10032000FB6000237B6176E07B69012202FA03F324
:100330003B613B681A683B691340FB60FA683B69A4
:100340009A4265D17B681A687B695B00032101FAD8
:1003500003F3DB431A407B681A607B681A683B68CA
:100360001B7919467B695B0001FA03F31A437B682A
:100370001A603B681B79012B03D03B681B79022B69
:100380002ED17B689A687B695B00032101FA03F335
:10039000DB431A407B689A607B689A683B685B79AC
:1003A00019467B695B0001FA03F31A437B689A6084
:1003B0007B685A687B699BB2012101FA03F3DB4336
:1003C0001A407B685A607B685A683B689B7919467B
:1003D0007B699BB201FA03F39BB21A437B685A60B4
:1003E0007B68DA687B699BB25B00032101FA03F347
:1003F000DB431A407B68DA607B68DA683B68DB794C
:1004000019467B695B0001FA03F31A437B68DA60E3
:100410007B6901337B617B690F2B85D91C37BD4616
:100420005DF8047B704700BF80B483B000AF786094
:100430000B467B807B685A697B885A407B685A618F
:100440000C37BD465DF8047B704700BF80B582B0B5
:1004500000AF0346FB71FA79064B53F82220F97975
:10046000054B33F8113010461946FFF7DDFF08370A
:10047000BD4680BD00000020DC09000880B500AF4B
:10048000012000F041F90346002B04D0012000F0C8
:100490002DF9FFF7EFFE80BD80B500AF4FF0804033
:1004A000012100F061FA0346002B18D04FF0804084
:1004B000012100F083FA0A4B1B885A1C91B2084AAA
:1004C0001180B3F57A7F0AD9064B1A684FF480532E
:1004D00010461946FFF7A8FF014B00221A8080BD85
:1004E000100000200000002080B500AF00F006F8EA
:1004F00000F024F800F05CF880BD00BF80B582B049
:1005000000AF08200121FFF7C5FE4FF440433B60D8
:100510003B6843F440533B6001233B7102237B71F2
:100520000023BB710023FB713B4603481946FFF7CC
:10053000EDFE0837BD4680BD000C024080B586B098
:1005400000AF01200121FFF7A5FE01233B6100233D
:100550003B7502237B750023BB750223FB7507F1F6
:10056000100312481946FFF7D1FE00200021FFF7C3
:100570000BFE01237B6000233B7208237B72012367
:10058000BB723B1D184600F043F806233B73012362
:100590007B730123BB730123FB7307F10C03184624
:1005A00000F0D6F81837BD4680BD00BF00000240FD
:1005B00080B584B000AF1C233B7000237B70012307
:1005C000BB700123FB703B46184600F0C1F80120C8
:1005D0000121FFF77DFE4FF47A73BB600F23BB80D0
:1005E0000023BB810023FB803B1D4FF08040194658
:1005F00000F00CF94FF080400121012200F090F949
:100600004FF08040012100F06BF91037BD4680BDEE
:1006100080B485B000AF78600023FB60324BFB6094
:100620007B689B79002B4DD02F4B2F4A11687A683D
:100630001268D2430A401A602B4B2B4A51687A68E1
:100640001268D2430A405A607B681B79FA681344E7
:10065000FB60FB68FA6811687A6812680A431A60DE
:10066000214B214A91687A681268D2430A409A6005
:100670001D4B1D4AD1687A681268D2430A40DA607D
:100680007B685B79102B0ED1174B174A91687A68FB
:1006900012680A439A60144B134AD1687A68126848
:1006A0000A43DA601BE0104BFB607B685B79FA68F9
:1006B0001344FB60FB68FA6811687A6812680A43A1
:1006C0001A600CE07B681B79FA681344FB60FB68D6
:1006D000FA6811687A681268D2430A401A601437BF
:1006E000BD465DF8047B7047003C014080B483B098
:1006F00000AF7860034B7A685A610C37BD465DF8ED
:10070000047B7047003C014080B485B000AF786046
:100710000023FB730023BB600C4B1A687B681340FB
:10072000BB600A4B5A697B681340002B05D0BB683D
:10073000002B02D00123FB7301E00023FB73FB7B42
:1007400018461437BD465DF8047B7047003C0140F5
:1007500080B485B000AF78600023FB730023BB73C7
:100760000F237B737B68DB78002B37D0254BDB684E
:10077000DB4303F4E0631B0AFB73FB7BC3F104035D
:10078000BB737A7BFB7B42FA03F37B737B685B78FA
:100790001A46BB7B02FA03F3FB737B689A787B7B78
:1007A0001340DAB2FB7B1343FB73FB7B1B01FB7330
:1007B000154A7B681B781344FA7B83F80023124B9D
:1007C0007A6812785209D2B27968097801F01F016B
:1007D000012000FA01F143F822100EE00A4B7A687A
:1007E00012785209D2B27968097801F01F0101200C
:1007F00000FA01F1203243F822101437BD465DF8AB
:10080000047B704700ED00E000E100E080B485B0BB
:1008100000AF786039600023FB817B681B88FB8117
:100820007A68284B9A4213D07A68274B9A420FD0A5
:100830007B68B3F1804F0BD07A68244B9A4207D083
:100840007A68234B9A4203D07A68224B9A4208D1A5
:10085000FB8923F07003FB813B685A88FB891343B3
:10086000FB817A681C4B9A420CD07A681B4B9A42E7
:1008700008D0FB8923F44073FB813B681A89FB890C
:100880001343FB817B68FA891A803B685A687B684E
:10089000DA623B681A887B681A857A68094B9A4243
:1008A00003D07A68084B9A4204D13B689B7A1A4677
:1008B0007B681A867B6801229A821437BD465DF8F0
:1008C000047B704700000140000401400004004028
:1008D00000080040000C00400010004000140040E0
:1008E00080B483B000AF78600B46FB70FB78002BC0
:1008F00008D07B681B889BB243F001039AB27B68E7
:100900001A8007E07B681B889BB223F001039AB230
:100910007B681A800C37BD465DF8047B704700BFCA
:1009200080B483B000AF786013460A467A807B704B
:100930007B78002B08D07B689B899AB27B88134315
:100940009AB27B689A8109E07B689B899AB27B881E
:10095000DB439BB213409AB27B689A810C37BD4649
:100960005DF8047B704700BF80B485B000AF78604D
:100970000B467B800023FB730023BB8100237B811C
:100980007B681B8A9AB27B881340BB817B689B89FA
:100990009AB27B8813407B81BB89002B05D07B8971
:1009A000002B02D00123FB7301E00023FB73FB7BD0
:1009B00018461437BD465DF8047B704780B483B099
:1009C00000AF78600B467B807B88DB439AB27B6804
:1009D0001A820C37BD465DF8047B7047001000405A
:0409E0000020008073
:1009E400000C0240000C0240000C0240000C0240CB
:0400000508000000EF
:00000001FF
